:1000000003308A00572B00000A108A100A11820759
:1000100028340C34013406340C104937E931E93006
:100020006E326F172E1700000C10C630FA326E3287
:100030006F100A10EC32693A753961172E170000FB
:100040000C10D432EE39E137A01E201800010A103E
:100050004136F43AF230A01E201800010C10D432C0
:10006000EE39E137A01E20182E1935000A1041364E
:10007000F43AF230A01EA01820000C10D432EE3951
:10008000E137A01E2018AE1A00010A104136F43ADA
:10009000F230A01E201920000C10D432EE39E137C6
:1000A000A01E2018AE1B35000A104136F43AF2307B
:1000B000A01EA01920000C10D432EE39E137A01E8A
:1000C000A01800010A104136F43AF230A01E201A9E
:1000D00020000C10D432EE39E137A01EA0182E19E2
:1000E00035000A104136F43AF230A01EA01A200062
:1000F0000C10D432EE39E137A01EA018AE1A000160
:100100000A104136F43AF230A01E201B20000C10D9
:10011000D432EE39E137A01EA018AE1B35000A100C
:100120004136F43AF230A01EA01B20000C10D4324D
:10013000EE39E137A01E201900010A104136F43AC9
:10014000F230A01E201C20000C10D432EE39E13712
:10015000A01E20192E1935000A104136F43AF2304B
:10016000A01EA01C20000C10D432EE39E137A01ED6
:100170002019AE1A00010A104136F43AF230A01EDE
:10018000A018301000010C10D432EE39E137A01E57
:100190002019AE1B35000A104136F43AF230A01E89
:1001A000A018311000010C10D432EE39E137A01E36
:1001B000A01900010A104136F43AF230A01EA0182E
:1001C000321000010C10D432EE39E137A01EA01914
:1001D0002E1935000A104136F43AF230A01EA0184C
:1001E000331000010C10D432EE39E137A01EA019F3
:1001F000AE1A00010A104136F43AF230A01EA018DF
:10020000341000010C10D432EE39E137A01EA019D1
:10021000AE1B35000A104136F43AF230A01EA01889
:10022000351000010C10D432EE39E137A01E201A2F
:1002300000010A104136F43AF230A01EA018361020
:1002400000010C10D432EE39E137A01E201A2E190D
:1002500035000A104136F43AF230A01EA0183710CB
:1002600000010C10D432EE39E137A01E201AAE1A6C
:1002700000010A104136F43AF230A01EA0183810DE
:1002800000010C10D432EE39E137A01E201AAE1B4B
:1002900035000A104136F43AF230A01EA018391089
:1002A00000010C10D432EE39E137A01EA01A000173
:1002B0000A104136F43AF230A01E20193010000026
:1002C0003130840083130008031973290630F800C5
:1002D000F701F70B6929F80B68297B30F700F70B5A
:1002E0006F29800B662908003818782908127929A7
:1002F0000816831608128312B818802988128129DB
:1003000088168316881283123819882908138929B8
:100310000817831608138312B81990298813912996
:10032000881783168813000083128614831686109C
:100330000230F700F70B9A299D29000083128610DE
:100340008316861083120800B90183160816003040
:100350008312081A0130B9048316881600308312FC
:10036000881A0130F7000310F70D7708B9048316D7
:10037000081700308312081B0130F700F70DF70D46
:10038000FC30F7057708B90483168817003083120C
:10039000881B0130F700F70DF70DF70DF830F70562
:1003A0007708B9043908F80008008316861006118A
:1003B00006128312061183160611081688160817EE
:1003C00088178312061683160612000083128614FD
:1003D0008316861000008312A4217808B8008610C6
:1003E0008316861000008312861483168610F8295F
:1003F000F92900008312A4217808B700861083161B
:10040000861008128812081388138312380EF7001A
:10041000F030F70577083704F8007808B700B71F01
:10042000132A8316DD29B508031D182A0611192A77
:100430000615831606110000831206128316061293
:10044000000083128610831686108312360EB700C2
:100450000F30B7053708B800742136080F39B700D8
:10046000B800742108008316081288120813881334
:1004700086100611061283120611831606118312C6
:1004800006128316061283128610831686100F300A
:100490008312B10060210130AC002C08033C031C26
:1004A000592A0330B80074210530B1006021AC0A2C
:1004B0004D2A0230B80074210530B1006021AC0132
:1004C0002C08033C031C6D2A2C080420AD00B50148
:1004D0002D08B600D521AC0A602A8A110A126F2BAA
:1004E000320B732A762A4030B300772AB3010130E9
:1004F0003102B30733088038B400B5013408B600C0
:10050000D52108003008073A0319902A0B3A03193D
:10051000952A063A03199D2A023A0319A32AA82A02
:100520000130B100B2007022AD2AB5010130B60031
:10053000D5210230B1006021AD2A0130B100023076
:10054000B2007022AD2AB5011030B600D521AD2A17
:100550000130B5003008B600D52108000B08AC000A
:100560008B13831603178C170C14000000008312E2
:100570000C087F390319F52A0313AD0003170D0882
:100580000313AE0003170F080313AF002D08B000CC
:1005900082222E0803178D0003132F0803178F00E4
:1005A00083168C170C140000000083120C0D0E0D26
:1005B0007F390319F52A0313AD0003170D08031340
:1005C000AE0003170F080313AF002D08B0008222FE
:1005D0002E0803178D0003132F0803178F008D0AB1
:1005E00003198F0A0313B12A03170313AC1B8B17CC
:1005F00008008E30F7002D08F8002C08F900FA01E9
:10060000F808031D0D2B7908F800F9010830F702EE
:10061000F808031D0D2BF701152B0310F81B142BE5
:10062000F90DF80DF7030D2BF8138A110A129D2B03
:100630002D08B4003108B406B41F232B0311031096
:10064000AD1B0314562B2D08B4003008B5002C0840
:10065000B5020319312BB41F562B0308013A83004E
:10066000562B3108B5002D08B50203193D2BB41FD8
:10067000562B0308013A8300562B3208B5002E088A
:10068000B5020319492BB41F562B0308013A830006
:10069000562B3308B5002F08B5020319552BB41F8C
:1006A000562B0308013A8300562B03100800030859
:1006B0001F39830083161F149F141F159F110730C5
:1006C0009C0083131F109F141F159F151F13831267
:1006D0001F179F1783169F1783121F14332A0C307E
:1006E00003178D0000308F000313AE220430AC00DE
:1006F000FA30B1006021AC0B782B143003178D0059
:1007000000308F000313AE220430AC00FA30B10089
:100710006021AC0B862B0030F8001F08C739780425
:100720009F001F151F19922B1E08FA0083161E0822
:100730008312AC001E08AD00F92A7A08A3007908DC
:10074000A2007808A1007708A0002308AF002208C3
:10075000AE002108AD002008AC00B301B20120308A
:10076000B1008330B0001823031CC42B20300317C2
:100770008D0000308F000313AE22273003178D0049
:1007800000308F000313AE22AF01AE012830AD0060
:100790008330AC002308B3002208B2002108B10066
:1007A0002008B0001823031CF42B2308AF002208F4
:1007B000AE002108AD002008AC00B301B2017830D2
:1007C000B1008430B0001823031CF42B2E30031723
:1007D0008D0000308F000313AE22363003178D00DA
:1007E00000308F000313AE22AF01AE010230AD0026
:1007F0008530AC002308B3002208B2002108B10004
:100800002008B0001823031C242C2308AF00220862
:10081000AE002108AD002008AC00B301B201523097
:10082000B1008530B0001823031C242C3D30031781
:100830008D0000308F000313AE22453003178D006A
:1008400000308F000313AE22AF01AE015230AD0075
:100850008530AC002308B3002208B2002108B100A3
:100860002008B0001823031C542C2308AF002208D2
:10087000AE002108AD002008AC00B301B2011B306E
:10088000B1008630B0001823031C542C4C300317E1
:100890008D0000308F000313AE22543003178D00FB
:1008A00000308F000313AE22AF01AE011C30AD004B
:1008B0008630AC002308B3002208B2002108B10042
:1008C0002008B0001823031C842C2308AF00220842
:1008D000AE002108AD002008AC00B301B2013930F0
:1008E000B1008630B0001823031C842C5B30031742
:1008F0008D0000308F000313AE22623003178D008D
:1009000000308F000313AE22AF01AE013A30AD00CC
:100910008630AC002308B3002208B2002108B100E1
:100920002008B0001823031CB42C2308AF002208B1
:10093000AE002108AD002008AC00B301B201703058
:10094000B1008630B0001823031CB42C69300317A3
:100950008D0000308F000313AE22713003178D001D
:1009600000308F000313AE22AF01AE017130AD0035
:100970008630AC002308B3002208B2002108B10081
:100980002008B0001823031CE42C2308AF00220821
:10099000AE002108AD002008AC00B301B2017E30EA
:1009A000B1008630B0001823031CE42C7830031704
:1009B0008D0000308F000313AE22803003178D00AE
:1009C00000308F000313AE22AF018030AE00013043
:1009D000AD008730AC002308B3002208B200210824
:1009E000B1002008B0001823031C152D2308AF0008
:1009F0002208AE002108AD002008AC00B301B2010E
:100A00000D30B1008730B0001823031C152D87303E
:100A100003178D0000308F000313AE228F300317B1
:100A20008D0000308F000313AE22AF018030AE0086
:100A30000D30AD008730AC002308B3002208B200AF
:100A40002108B1002008B0001823031C472D2308FB
:100A5000AF002208AE002108AD002008AC00B301B1
:100A60008030B2001E30B1008730B0001823031C64
:100A7000472D963003178D0000308F000313AE22F0
:100A80009D3003178D0000308F000313AE22AF019D
:100A90008030AE001F30AD008730AC002308B300BB
:100AA0002208B2002108B1002008B0001823031C5E
:100AB000792D2308AF002208AE002108AD002008E0
:100AC000AC00B3018030B2002930B1008730B000F3
:100AD0001823031C792DA43003178D0000308F00DC
:100AE0000313AE22AC3003178D0000308F000313C8
:100AF000AE22AF01AE012A30AD008730AC00230832
:100B0000B3002208B2002108B1002008B000182369
:100B1000031CA92D2308AF002208AE002108AD0058
:100B20002008AC00B301B2013330B1008730B0000F
:100B30001823031CA92DB33003178D0000308F003C
:100B40000313AE22BB3003178D0000308F00031358
:100B5000AE22AF018030AE003330AD008730AC0044
:100B60002308B3002208B2002108B1002008B00019
:100B70001823031CDB2D2308AF002208AE00210838
:100B8000AD002008AC00B3018030B2004530B100A8
:100B90008730B0001823031CDB2DC33003178D00F2
:100BA00000308F000313AE22CB3003178D000030CE
:100BB0008F000313AE22AF01AE014630AD00873087
:100BC000AC002308B3002208B2002108B1002008BD
:100BD000B0001823031C0B2E2308AF002208AE0020
:100BE0002108AD002008AC00B301B2014830B100CB
:100BF0008730B0001823031C0B2ED33003178D0051
:100C000000308F000313AE22DA3003178D0000305E
:100C10008F000313AE22AF018030AE004830AD002C
:100C20008730AC002308B3002208B2002108B100CD
:100C30002008B0001823031C3D2E2308AF00220813
:100C4000AE002108AD002008AC00B3018030B20036
:100C50005730B1008730B0001823031C3D2EE2301E
:100C600003178D0000308F000313AE22EA30031704
:100C70008D0000308F000313AE22AF018030AE0034
:100C80005830AD008730AC002308B3002208B20012
:100C90002108B1002008B0001823031C6E2E230881
:100CA000AF002208AE002108AD002008AC00B3015F
:100CB000B2015C30B1008730B0001823031C6E2EE7
:100CC000F23003178D0000308F000313AE22FA308C
:100CD00003178D0000308F000313AE22AF01803068
:100CE000AE005C30AD008730AC002308B3002208B2
:100CF000B2002108B1002008B0001823031C9F2E69
:100D00002308AF002208AE002108AD002008AC0087
:100D1000B301B2016430B1008730B0001823031C66
:100D20009F2E023003178D0001308F000313AE2277
:100D30000A3003178D0001308F000313AE22AF017C
:100D40008030AE006430AD008730AC002308B300C3
:100D50002208B2002108B1002008B0001823031CAB
:100D6000D02E2308AF002208AE002108AD002008D5
:100D7000AC00B301B2016830B1008730B000182375
:100D8000031CD02E123003178D0001308F00031387
:100D9000AE22193003178D0001308F000313AE22ED
:100DA000AF018030AE006830AD008730AC00230862
:100DB000B3002208B2002108B1002008B0001823B7
:100DC000031C022F2308AF002208AE002108AD004B
:100DD0002008AC00B3018030B2006C30B100873025
:100DE000B0001823031C022F213003178D0001309F
:100DF0008F000313AE22293003178D0001308F00BE
:100E00000313AE22AF01AE016D30AD008730AC00F0
:100E10002308B3002208B2002108B1002008B00066
:100E20001823031C332F2308AF002208AE0021082B
:100E3000AD002008AC00B3018030B2007030B100CA
:100E40008730B0001823031C332F313003178D0077
:100E500001308F000313AE22393003178D000130AB
:100E60008F000313AE22AF01AE017130AD008730A9
:100E7000AC002308B3002208B2002108B10020080A
:100E8000B0001823031C632F2308AF002208AE0014
:100E90002108AD002008AC00B301B2017530B100EB
:100EA0008730B0001823031C632F413003178D00D7
:100EB00001308F000313AE22493003178D0001303B
:100EC0008F000313AE22AF01AE017530AD00873045
:100ED000AC002308B3002208B2002108B1002008AA
:100EE000B00018230318762F031D842F51300317E9
:100EF0008D0001308F000313AE22583003178D0090
:100F000001308F000313AE220430AC00FA30B10080
:0A0F10006021AC0B862F8B2B6300D1
:02400E00323F3F
:00000001FF
;PIC16F877A
;CRC=27EA  CREATED="04-jun-18 17:25"
